{
	"data": {
		"bytecode": {
			"linkReferences": {},
			"object": "60806040525f6002553480156012575f80fd5b50611eb4806100205f395ff3fe60806040526004361061006f575f3560e01c80637eefc7e51161004d5780637eefc7e5146100fb578063a6b0363314610137578063a7a2502614610161578063d4e3dd6f146101895761006f565b806307ca140d14610073578063141961bc1461009d57806328755e7f146100df575b5f80fd5b34801561007e575f80fd5b506100876101c5565b6040516100949190610f0a565b60405180910390f35b3480156100a8575f80fd5b506100c360048036038101906100be9190610f5e565b6101cb565b6040516100d69796959493929190611038565b60405180910390f35b6100f960048036038101906100f491906110e4565b6103b9565b005b348015610106575f80fd5b50610121600480360381019061011c91906110e4565b6105d9565b60405161012e9190611122565b60405180910390f35b348015610142575f80fd5b5061014b610616565b604051610158919061148a565b60405180910390f35b34801561016c575f80fd5b5061018760048036038101906101829190610f5e565b6109cf565b005b348015610194575f80fd5b506101af60048036038101906101aa91906115d6565b610c8b565b6040516101bc9190610f0a565b60405180910390f35b60025481565b5f602052805f5260405f205f91509050805f015f9054906101000a900473ffffffffffffffffffffffffffffffffffffffff169080600101805461020e906116ce565b80601f016020809104026020016040519081016040528092919081815260200182805461023a906116ce565b80156102855780601f1061025c57610100808354040283529160200191610285565b820191905f5260205f20905b81548152906001019060200180831161026857829003601f168201915b50505050509080600201805461029a906116ce565b80601f01602080910402602001604051908101604052809291908181526020018280546102c6906116ce565b80156103115780601f106102e857610100808354040283529160200191610311565b820191905f5260205f20905b8154815290600101906020018083116102f457829003601f168201915b505050505090806003015490806004015490806005015490806006018054610338906116ce565b80601f0160208091040260200160405190810160405280929190818152602001828054610364906116ce565b80156103af5780601f10610386576101008083540402835291602001916103af565b820191905f5260205f20905b81548152906001019060200180831161039257829003601f168201915b5050505050905087565b5f805f8481526020019081526020015f20905080600401544210610412576040517f08c379a000000000000000000000000000000000000000000000000000000000815260040161040990611748565b60405180910390fd5b5f3411610454576040517f08c379a000000000000000000000000000000000000000000000000000000000815260040161044b906117d6565b60405180910390fd5b8060070133908060018154018082558091505060019003905f5260205f20015f9091909190916101000a81548173ffffffffffffffffffffffffffffffffffffffff021916908373ffffffffffffffffffffffffffffffffffffffff1602179055508060080134908060018154018082558091505060019003905f5260205f20015f909190919091505534816005015f8282546104f19190611821565b925050819055508160015f8581526020019081526020015f205f3373ffffffffffffffffffffffffffffffffffffffff1673ffffffffffffffffffffffffffffffffffffffff1681526020019081526020015f205f6101000a81548173ffffffffffffffffffffffffffffffffffffffff021916908373ffffffffffffffffffffffffffffffffffffffff1602179055503373ffffffffffffffffffffffffffffffffffffffff167f3dbea1b4ce5f95137fdcac9b1d685825c3d70ace830df1ca5a181d3887add4108434426040516105cc93929190611854565b60405180910390a2505050565b6001602052815f5260405f20602052805f5260405f205f915091509054906101000a900473ffffffffffffffffffffffffffffffffffffffff1681565b60605f60025467ffffffffffffffff811115610635576106346114b2565b5b60405190808252806020026020018201604052801561066e57816020015b61065b610e3d565b8152602001906001900390816106535790505b5090505f5b6002548110156109c7575f808281526020019081526020015f20604051806101200160405290815f82015f9054906101000a900473ffffffffffffffffffffffffffffffffffffffff1673ffffffffffffffffffffffffffffffffffffffff1673ffffffffffffffffffffffffffffffffffffffff1681526020016001820180546106fd906116ce565b80601f0160208091040260200160405190810160405280929190818152602001828054610729906116ce565b80156107745780601f1061074b57610100808354040283529160200191610774565b820191905f5260205f20905b81548152906001019060200180831161075757829003601f168201915b5050505050815260200160028201805461078d906116ce565b80601f01602080910402602001604051908101604052809291908181526020018280546107b9906116ce565b80156108045780601f106107db57610100808354040283529160200191610804565b820191905f5260205f20905b8154815290600101906020018083116107e757829003601f168201915b5050505050815260200160038201548152602001600482015481526020016005820154815260200160068201805461083b906116ce565b80601f0160208091040260200160405190810160405280929190818152602001828054610867906116ce565b80156108b25780601f10610889576101008083540402835291602001916108b2565b820191905f5260205f20905b81548152906001019060200180831161089557829003601f168201915b505050505081526020016007820180548060200260200160405190810160405280929190818152602001828054801561093d57602002820191905f5260205f20905b815f9054906101000a900473ffffffffffffffffffffffffffffffffffffffff1673ffffffffffffffffffffffffffffffffffffffff16815260200190600101908083116108f4575b505050505081526020016008820180548060200260200160405190810160405280929190818152602001828054801561099357602002820191905f5260205f20905b81548152602001906001019080831161097f575b5050505050815250508282815181106109af576109ae611889565b5b60200260200101819052508080600101915050610673565b508091505090565b5f805f8381526020019081526020015f2090508060040154421015610a29576040517f08c379a0000000000000000000000000000000000000000000000000000000008152600401610a2090611900565b60405180910390fd5b8060030154816005015410610a73576040517f08c379a0000000000000000000000000000000000000000000000000000000008152600401610a6a9061198e565b60405180910390fd5b5f5b8160070180549050811015610c5f575f826007018281548110610a9b57610a9a611889565b5b905f5260205f20015f9054906101000a900473ffffffffffffffffffffffffffffffffffffffff1690505f836008018381548110610adc57610adb611889565b5b905f5260205f20015490505f60015f8781526020019081526020015f205f8473ffffffffffffffffffffffffffffffffffffffff1673ffffffffffffffffffffffffffffffffffffffff1681526020019081526020015f205f9054906101000a900473ffffffffffffffffffffffffffffffffffffffff1690505f8173ffffffffffffffffffffffffffffffffffffffff1683604051610b7b906119d9565b5f6040518083038185875af1925050503d805f8114610bb5576040519150601f19603f3d011682016040523d82523d5f602084013e610bba565b606091505b5050905080610bfe576040517f08c379a0000000000000000000000000000000000000000000000000000000008152600401610bf590611a37565b60405180910390fd5b8373ffffffffffffffffffffffffffffffffffffffff167f7ca5472b7ea78c2c0141c5a12ee6d170cf4ce8ed06be3d22c8252ddfc7a6a2c48885604051610c46929190611a55565b60405180910390a2505050508080600101915050610a75565b505f8160050181905550806007015f610c789190610e9b565b806008015f610c879190610eb9565b5050565b5f808411610cce576040517f08c379a0000000000000000000000000000000000000000000000000000000008152600401610cc590611aec565b60405180910390fd5b428311610d10576040517f08c379a0000000000000000000000000000000000000000000000000000000008152600401610d0790611b7a565b60405180910390fd5b5f805f60025481526020019081526020015f20905033815f015f6101000a81548173ffffffffffffffffffffffffffffffffffffffff021916908373ffffffffffffffffffffffffffffffffffffffff16021790555086816001019081610d779190611d35565b5085816002019081610d899190611d35565b508481600301819055508381600401819055505f816005018190555082816006019081610db69190611d35565b503373ffffffffffffffffffffffffffffffffffffffff167f91b289a829e71d811b8c69e4a24ba2d40d115d8a236e9a724cb3bb2d43cf72236002548787604051610e0393929190611854565b60405180910390a260025f815480929190610e1d90611e04565b91905055506001600254610e319190611e4b565b91505095945050505050565b6040518061012001604052805f73ffffffffffffffffffffffffffffffffffffffff16815260200160608152602001606081526020015f81526020015f81526020015f81526020016060815260200160608152602001606081525090565b5080545f8255905f5260205f2090810190610eb69190610ed7565b50565b5080545f8255905f5260205f2090810190610ed49190610ed7565b50565b5b80821115610eee575f815f905550600101610ed8565b5090565b5f819050919050565b610f0481610ef2565b82525050565b5f602082019050610f1d5f830184610efb565b92915050565b5f604051905090565b5f80fd5b5f80fd5b610f3d81610ef2565b8114610f47575f80fd5b50565b5f81359050610f5881610f34565b92915050565b5f60208284031215610f7357610f72610f2c565b5b5f610f8084828501610f4a565b91505092915050565b5f73ffffffffffffffffffffffffffffffffffffffff82169050919050565b5f610fb282610f89565b9050919050565b610fc281610fa8565b82525050565b5f81519050919050565b5f82825260208201905092915050565b8281835e5f83830152505050565b5f601f19601f8301169050919050565b5f61100a82610fc8565b6110148185610fd2565b9350611024818560208601610fe2565b61102d81610ff0565b840191505092915050565b5f60e08201905061104b5f83018a610fb9565b818103602083015261105d8189611000565b905081810360408301526110718188611000565b90506110806060830187610efb565b61108d6080830186610efb565b61109a60a0830185610efb565b81810360c08301526110ac8184611000565b905098975050505050505050565b6110c381610fa8565b81146110cd575f80fd5b50565b5f813590506110de816110ba565b92915050565b5f80604083850312156110fa576110f9610f2c565b5b5f61110785828601610f4a565b9250506020611118858286016110d0565b9150509250929050565b5f6020820190506111355f830184610fb9565b92915050565b5f81519050919050565b5f82825260208201905092915050565b5f819050602082019050919050565b61116d81610fa8565b82525050565b5f82825260208201905092915050565b5f61118d82610fc8565b6111978185611173565b93506111a7818560208601610fe2565b6111b081610ff0565b840191505092915050565b6111c481610ef2565b82525050565b5f81519050919050565b5f82825260208201905092915050565b5f819050602082019050919050565b5f6111fe8383611164565b60208301905092915050565b5f602082019050919050565b5f611220826111ca565b61122a81856111d4565b9350611235836111e4565b805f5b8381101561126557815161124c88826111f3565b97506112578361120a565b925050600181019050611238565b5085935050505092915050565b5f81519050919050565b5f82825260208201905092915050565b5f819050602082019050919050565b5f6112a683836111bb565b60208301905092915050565b5f602082019050919050565b5f6112c882611272565b6112d2818561127c565b93506112dd8361128c565b805f5b8381101561130d5781516112f4888261129b565b97506112ff836112b2565b9250506001810190506112e0565b5085935050505092915050565b5f61012083015f8301516113305f860182611164565b50602083015184820360208601526113488282611183565b915050604083015184820360408601526113628282611183565b915050606083015161137760608601826111bb565b50608083015161138a60808601826111bb565b5060a083015161139d60a08601826111bb565b5060c083015184820360c08601526113b58282611183565b91505060e083015184820360e08601526113cf8282611216565b9150506101008301518482036101008601526113eb82826112be565b9150508091505092915050565b5f611403838361131a565b905092915050565b5f602082019050919050565b5f6114218261113b565b61142b8185611145565b93508360208202850161143d85611155565b805f5b85811015611478578484038952815161145985826113f8565b94506114648361140b565b925060208a01995050600181019050611440565b50829750879550505050505092915050565b5f6020820190508181035f8301526114a28184611417565b905092915050565b5f80fd5b5f80fd5b7f4e487b71000000000000000000000000000000000000000000000000000000005f52604160045260245ffd5b6114e882610ff0565b810181811067ffffffffffffffff82111715611507576115066114b2565b5b80604052505050565b5f611519610f23565b905061152582826114df565b919050565b5f67ffffffffffffffff821115611544576115436114b2565b5b61154d82610ff0565b9050602081019050919050565b828183375f83830152505050565b5f61157a6115758461152a565b611510565b905082815260208101848484011115611596576115956114ae565b5b6115a184828561155a565b509392505050565b5f82601f8301126115bd576115bc6114aa565b5b81356115cd848260208601611568565b91505092915050565b5f805f805f60a086880312156115ef576115ee610f2c565b5b5f86013567ffffffffffffffff81111561160c5761160b610f30565b5b611618888289016115a9565b955050602086013567ffffffffffffffff81111561163957611638610f30565b5b611645888289016115a9565b945050604061165688828901610f4a565b935050606061166788828901610f4a565b925050608086013567ffffffffffffffff81111561168857611687610f30565b5b611694888289016115a9565b9150509295509295909350565b7f4e487b71000000000000000000000000000000000000000000000000000000005f52602260045260245ffd5b5f60028204905060018216806116e557607f821691505b6020821081036116f8576116f76116a1565b5b50919050565b7f43616d706169676e20646561646c696e6520686173207061737365642e0000005f82015250565b5f611732601d83610fd2565b915061173d826116fe565b602082019050919050565b5f6020820190508181035f83015261175f81611726565b9050919050565b7f446f6e6174696f6e206d7573742062652067726561746572207468616e207a655f8201527f726f2e0000000000000000000000000000000000000000000000000000000000602082015250565b5f6117c0602383610fd2565b91506117cb82611766565b604082019050919050565b5f6020820190508181035f8301526117ed816117b4565b9050919050565b7f4e487b71000000000000000000000000000000000000000000000000000000005f52601160045260245ffd5b5f61182b82610ef2565b915061183683610ef2565b925082820190508082111561184e5761184d6117f4565b5b92915050565b5f6060820190506118675f830186610efb565b6118746020830185610efb565b6118816040830184610efb565b949350505050565b7f4e487b71000000000000000000000000000000000000000000000000000000005f52603260045260245ffd5b7f43616d706169676e206973207374696c6c206163746976652e000000000000005f82015250565b5f6118ea601983610fd2565b91506118f5826118b6565b602082019050919050565b5f6020820190508181035f830152611917816118de565b9050919050565b7f43616d706169676e20776173207375636365737366756c2c206e6f20726566755f8201527f6e647320616c6c6f7765642e0000000000000000000000000000000000000000602082015250565b5f611978602c83610fd2565b91506119838261191e565b604082019050919050565b5f6020820190508181035f8301526119a58161196c565b9050919050565b5f81905092915050565b50565b5f6119c45f836119ac565b91506119cf826119b6565b5f82019050919050565b5f6119e3826119b9565b9150819050919050565b7f526566756e64206661696c65642e0000000000000000000000000000000000005f82015250565b5f611a21600e83610fd2565b9150611a2c826119ed565b602082019050919050565b5f6020820190508181035f830152611a4e81611a15565b9050919050565b5f604082019050611a685f830185610efb565b611a756020830184610efb565b9392505050565b7f546172676574206d7573742062652067726561746572207468616e207a65726f5f8201527f2e00000000000000000000000000000000000000000000000000000000000000602082015250565b5f611ad6602183610fd2565b9150611ae182611a7c565b604082019050919050565b5f6020820190508181035f830152611b0381611aca565b9050919050565b7f446561646c696e652073686f756c6420626520696e20746865206675747572655f8201527f2e00000000000000000000000000000000000000000000000000000000000000602082015250565b5f611b64602183610fd2565b9150611b6f82611b0a565b604082019050919050565b5f6020820190508181035f830152611b9181611b58565b9050919050565b5f819050815f5260205f209050919050565b5f6020601f8301049050919050565b5f82821b905092915050565b5f60088302611bf47fffffffffffffffffffffffffffffffffffffffffffffffffffffffffffffffff82611bb9565b611bfe8683611bb9565b95508019841693508086168417925050509392505050565b5f819050919050565b5f611c39611c34611c2f84610ef2565b611c16565b610ef2565b9050919050565b5f819050919050565b611c5283611c1f565b611c66611c5e82611c40565b848454611bc5565b825550505050565b5f90565b611c7a611c6e565b611c85818484611c49565b505050565b5b81811015611ca857611c9d5f82611c72565b600181019050611c8b565b5050565b601f821115611ced57611cbe81611b98565b611cc784611baa565b81016020851015611cd6578190505b611cea611ce285611baa565b830182611c8a565b50505b505050565b5f82821c905092915050565b5f611d0d5f1984600802611cf2565b1980831691505092915050565b5f611d258383611cfe565b9150826002028217905092915050565b611d3e82610fc8565b67ffffffffffffffff811115611d5757611d566114b2565b5b611d6182546116ce565b611d6c828285611cac565b5f60209050601f831160018114611d9d575f8415611d8b578287015190505b611d958582611d1a565b865550611dfc565b601f198416611dab86611b98565b5f5b82811015611dd257848901518255600182019150602085019450602081019050611dad565b86831015611def5784890151611deb601f891682611cfe565b8355505b6001600288020188555050505b505050505050565b5f611e0e82610ef2565b91507fffffffffffffffffffffffffffffffffffffffffffffffffffffffffffffffff8203611e4057611e3f6117f4565b5b600182019050919050565b5f611e5582610ef2565b9150611e6083610ef2565b9250828203905081811115611e7857611e776117f4565b5b9291505056fea2646970667358221220c4459db6b836c864a06c1fa58a916511e888d5b9a566c8cc440f673fb1841eca64736f6c634300081a0033",
			"opcodes": "PUSH1 0x80 PUSH1 0x40 MSTORE PUSH0 PUSH1 0x2 SSTORE CALLVALUE DUP1 ISZERO PUSH1 0x12 JUMPI PUSH0 DUP1 REVERT JUMPDEST POP PUSH2 0x1EB4 DUP1 PUSH2 0x20 PUSH0 CODECOPY PUSH0 RETURN INVALID PUSH1 0x80 PUSH1 0x40 MSTORE PUSH1 0x4 CALLDATASIZE LT PUSH2 0x6F JUMPI PUSH0 CALLDATALOAD PUSH1 0xE0 SHR DUP1 PUSH4 0x7EEFC7E5 GT PUSH2 0x4D JUMPI DUP1 PUSH4 0x7EEFC7E5 EQ PUSH2 0xFB JUMPI DUP1 PUSH4 0xA6B03633 EQ PUSH2 0x137 JUMPI DUP1 PUSH4 0xA7A25026 EQ PUSH2 0x161 JUMPI DUP1 PUSH4 0xD4E3DD6F EQ PUSH2 0x189 JUMPI PUSH2 0x6F JUMP JUMPDEST DUP1 PUSH4 0x7CA140D EQ PUSH2 0x73 JUMPI DUP1 PUSH4 0x141961BC EQ PUSH2 0x9D JUMPI DUP1 PUSH4 0x28755E7F EQ PUSH2 0xDF JUMPI JUMPDEST PUSH0 DUP1 REVERT JUMPDEST CALLVALUE DUP1 ISZERO PUSH2 0x7E JUMPI PUSH0 DUP1 REVERT JUMPDEST POP PUSH2 0x87 PUSH2 0x1C5 JUMP JUMPDEST PUSH1 0x40 MLOAD PUSH2 0x94 SWAP2 SWAP1 PUSH2 0xF0A JUMP JUMPDEST PUSH1 0x40 MLOAD DUP1 SWAP2 SUB SWAP1 RETURN JUMPDEST CALLVALUE DUP1 ISZERO PUSH2 0xA8 JUMPI PUSH0 DUP1 REVERT JUMPDEST POP PUSH2 0xC3 PUSH1 0x4 DUP1 CALLDATASIZE SUB DUP2 ADD SWAP1 PUSH2 0xBE SWAP2 SWAP1 PUSH2 0xF5E JUMP JUMPDEST PUSH2 0x1CB JUMP JUMPDEST PUSH1 0x40 MLOAD PUSH2 0xD6 SWAP8 SWAP7 SWAP6 SWAP5 SWAP4 SWAP3 SWAP2 SWAP1 PUSH2 0x1038 JUMP JUMPDEST PUSH1 0x40 MLOAD DUP1 SWAP2 SUB SWAP1 RETURN JUMPDEST PUSH2 0xF9 PUSH1 0x4 DUP1 CALLDATASIZE SUB DUP2 ADD SWAP1 PUSH2 0xF4 SWAP2 SWAP1 PUSH2 0x10E4 JUMP JUMPDEST PUSH2 0x3B9 JUMP JUMPDEST STOP JUMPDEST CALLVALUE DUP1 ISZERO PUSH2 0x106 JUMPI PUSH0 DUP1 REVERT JUMPDEST POP PUSH2 0x121 PUSH1 0x4 DUP1 CALLDATASIZE SUB DUP2 ADD SWAP1 PUSH2 0x11C SWAP2 SWAP1 PUSH2 0x10E4 JUMP JUMPDEST PUSH2 0x5D9 JUMP JUMPDEST PUSH1 0x40 MLOAD PUSH2 0x12E SWAP2 SWAP1 PUSH2 0x1122 JUMP JUMPDEST PUSH1 0x40 MLOAD DUP1 SWAP2 SUB SWAP1 RETURN JUMPDEST CALLVALUE DUP1 ISZERO PUSH2 0x142 JUMPI PUSH0 DUP1 REVERT JUMPDEST POP PUSH2 0x14B PUSH2 0x616 JUMP JUMPDEST PUSH1 0x40 MLOAD PUSH2 0x158 SWAP2 SWAP1 PUSH2 0x148A JUMP JUMPDEST PUSH1 0x40 MLOAD DUP1 SWAP2 SUB SWAP1 RETURN JUMPDEST CALLVALUE DUP1 ISZERO PUSH2 0x16C JUMPI PUSH0 DUP1 REVERT JUMPDEST POP PUSH2 0x187 PUSH1 0x4 DUP1 CALLDATASIZE SUB DUP2 ADD SWAP1 PUSH2 0x182 SWAP2 SWAP1 PUSH2 0xF5E JUMP JUMPDEST PUSH2 0x9CF JUMP JUMPDEST STOP JUMPDEST CALLVALUE DUP1 ISZERO PUSH2 0x194 JUMPI PUSH0 DUP1 REVERT JUMPDEST POP PUSH2 0x1AF PUSH1 0x4 DUP1 CALLDATASIZE SUB DUP2 ADD SWAP1 PUSH2 0x1AA SWAP2 SWAP1 PUSH2 0x15D6 JUMP JUMPDEST PUSH2 0xC8B JUMP JUMPDEST PUSH1 0x40 MLOAD PUSH2 0x1BC SWAP2 SWAP1 PUSH2 0xF0A JUMP JUMPDEST PUSH1 0x40 MLOAD DUP1 SWAP2 SUB SWAP1 RETURN JUMPDEST PUSH1 0x2 SLOAD DUP2 JUMP JUMPDEST PUSH0 PUSH1 0x20 MSTORE DUP1 PUSH0 MSTORE PUSH1 0x40 PUSH0 KECCAK256 PUSH0 SWAP2 POP SWAP1 POP DUP1 PUSH0 ADD PUSH0 SWAP1 SLOAD SWAP1 PUSH2 0x100 EXP SWAP1 DIV PUSH20 0xFFFFFFFFFFFFFFFFFFFFFFFFFFFFFFFFFFFFFFFF AND SWAP1 DUP1 PUSH1 0x1 ADD DUP1 SLOAD PUSH2 0x20E SWAP1 PUSH2 0x16CE JUMP JUMPDEST DUP1 PUSH1 0x1F ADD PUSH1 0x20 DUP1 SWAP2 DIV MUL PUSH1 0x20 ADD PUSH1 0x40 MLOAD SWAP1 DUP2 ADD PUSH1 0x40 MSTORE DUP1 SWAP3 SWAP2 SWAP1 DUP2 DUP2 MSTORE PUSH1 0x20 ADD DUP3 DUP1 SLOAD PUSH2 0x23A SWAP1 PUSH2 0x16CE JUMP JUMPDEST DUP1 ISZERO PUSH2 0x285 JUMPI DUP1 PUSH1 0x1F LT PUSH2 0x25C JUMPI PUSH2 0x100 DUP1 DUP4 SLOAD DIV MUL DUP4 MSTORE SWAP2 PUSH1 0x20 ADD SWAP2 PUSH2 0x285 JUMP JUMPDEST DUP3 ADD SWAP2 SWAP1 PUSH0 MSTORE PUSH1 0x20 PUSH0 KECCAK256 SWAP1 JUMPDEST DUP2 SLOAD DUP2 MSTORE SWAP1 PUSH1 0x1 ADD SWAP1 PUSH1 0x20 ADD DUP1 DUP4 GT PUSH2 0x268 JUMPI DUP3 SWAP1 SUB PUSH1 0x1F AND DUP3 ADD SWAP2 JUMPDEST POP POP POP POP POP SWAP1 DUP1 PUSH1 0x2 ADD DUP1 SLOAD PUSH2 0x29A SWAP1 PUSH2 0x16CE JUMP JUMPDEST DUP1 PUSH1 0x1F ADD PUSH1 0x20 DUP1 SWAP2 DIV MUL PUSH1 0x20 ADD PUSH1 0x40 MLOAD SWAP1 DUP2 ADD PUSH1 0x40 MSTORE DUP1 SWAP3 SWAP2 SWAP1 DUP2 DUP2 MSTORE PUSH1 0x20 ADD DUP3 DUP1 SLOAD PUSH2 0x2C6 SWAP1 PUSH2 0x16CE JUMP JUMPDEST DUP1 ISZERO PUSH2 0x311 JUMPI DUP1 PUSH1 0x1F LT PUSH2 0x2E8 JUMPI PUSH2 0x100 DUP1 DUP4 SLOAD DIV MUL DUP4 MSTORE SWAP2 PUSH1 0x20 ADD SWAP2 PUSH2 0x311 JUMP JUMPDEST DUP3 ADD SWAP2 SWAP1 PUSH0 MSTORE PUSH1 0x20 PUSH0 KECCAK256 SWAP1 JUMPDEST DUP2 SLOAD DUP2 MSTORE SWAP1 PUSH1 0x1 ADD SWAP1 PUSH1 0x20 ADD DUP1 DUP4 GT PUSH2 0x2F4 JUMPI DUP3 SWAP1 SUB PUSH1 0x1F AND DUP3 ADD SWAP2 JUMPDEST POP POP POP POP POP SWAP1 DUP1 PUSH1 0x3 ADD SLOAD SWAP1 DUP1 PUSH1 0x4 ADD SLOAD SWAP1 DUP1 PUSH1 0x5 ADD SLOAD SWAP1 DUP1 PUSH1 0x6 ADD DUP1 SLOAD PUSH2 0x338 SWAP1 PUSH2 0x16CE JUMP JUMPDEST DUP1 PUSH1 0x1F ADD PUSH1 0x20 DUP1 SWAP2 DIV MUL PUSH1 0x20 ADD PUSH1 0x40 MLOAD SWAP1 DUP2 ADD PUSH1 0x40 MSTORE DUP1 SWAP3 SWAP2 SWAP1 DUP2 DUP2 MSTORE PUSH1 0x20 ADD DUP3 DUP1 SLOAD PUSH2 0x364 SWAP1 PUSH2 0x16CE JUMP JUMPDEST DUP1 ISZERO PUSH2 0x3AF JUMPI DUP1 PUSH1 0x1F LT PUSH2 0x386 JUMPI PUSH2 0x100 DUP1 DUP4 SLOAD DIV MUL DUP4 MSTORE SWAP2 PUSH1 0x20 ADD SWAP2 PUSH2 0x3AF JUMP JUMPDEST DUP3 ADD SWAP2 SWAP1 PUSH0 MSTORE PUSH1 0x20 PUSH0 KECCAK256 SWAP1 JUMPDEST DUP2 SLOAD DUP2 MSTORE SWAP1 PUSH1 0x1 ADD SWAP1 PUSH1 0x20 ADD DUP1 DUP4 GT PUSH2 0x392 JUMPI DUP3 SWAP1 SUB PUSH1 0x1F AND DUP3 ADD SWAP2 JUMPDEST POP POP POP POP POP SWAP1 POP DUP8 JUMP JUMPDEST PUSH0 DUP1 PUSH0 DUP5 DUP2 MSTORE PUSH1 0x20 ADD SWAP1 DUP2 MSTORE PUSH1 0x20 ADD PUSH0 KECCAK256 SWAP1 POP DUP1 PUSH1 0x4 ADD SLOAD TIMESTAMP LT PUSH2 0x412 JUMPI PUSH1 0x40 MLOAD PUSH32 0x8C379A000000000000000000000000000000000000000000000000000000000 DUP2 MSTORE PUSH1 0x4 ADD PUSH2 0x409 SWAP1 PUSH2 0x1748 JUMP JUMPDEST PUSH1 0x40 MLOAD DUP1 SWAP2 SUB SWAP1 REVERT JUMPDEST PUSH0 CALLVALUE GT PUSH2 0x454 JUMPI PUSH1 0x40 MLOAD PUSH32 0x8C379A000000000000000000000000000000000000000000000000000000000 DUP2 MSTORE PUSH1 0x4 ADD PUSH2 0x44B SWAP1 PUSH2 0x17D6 JUMP JUMPDEST PUSH1 0x40 MLOAD DUP1 SWAP2 SUB SWAP1 REVERT JUMPDEST DUP1 PUSH1 0x7 ADD CALLER SWAP1 DUP1 PUSH1 0x1 DUP2 SLOAD ADD DUP1 DUP3 SSTORE DUP1 SWAP2 POP POP PUSH1 0x1 SWAP1 SUB SWAP1 PUSH0 MSTORE PUSH1 0x20 PUSH0 KECCAK256 ADD PUSH0 SWAP1 SWAP2 SWAP1 SWAP2 SWAP1 SWAP2 PUSH2 0x100 EXP DUP2 SLOAD DUP2 PUSH20 0xFFFFFFFFFFFFFFFFFFFFFFFFFFFFFFFFFFFFFFFF MUL NOT AND SWAP1 DUP4 PUSH20 0xFFFFFFFFFFFFFFFFFFFFFFFFFFFFFFFFFFFFFFFF AND MUL OR SWAP1 SSTORE POP DUP1 PUSH1 0x8 ADD CALLVALUE SWAP1 DUP1 PUSH1 0x1 DUP2 SLOAD ADD DUP1 DUP3 SSTORE DUP1 SWAP2 POP POP PUSH1 0x1 SWAP1 SUB SWAP1 PUSH0 MSTORE PUSH1 0x20 PUSH0 KECCAK256 ADD PUSH0 SWAP1 SWAP2 SWAP1 SWAP2 SWAP1 SWAP2 POP SSTORE CALLVALUE DUP2 PUSH1 0x5 ADD PUSH0 DUP3 DUP3 SLOAD PUSH2 0x4F1 SWAP2 SWAP1 PUSH2 0x1821 JUMP JUMPDEST SWAP3 POP POP DUP2 SWAP1 SSTORE POP DUP2 PUSH1 0x1 PUSH0 DUP6 DUP2 MSTORE PUSH1 0x20 ADD SWAP1 DUP2 MSTORE PUSH1 0x20 ADD PUSH0 KECCAK256 PUSH0 CALLER PUSH20 0xFFFFFFFFFFFFFFFFFFFFFFFFFFFFFFFFFFFFFFFF AND PUSH20 0xFFFFFFFFFFFFFFFFFFFFFFFFFFFFFFFFFFFFFFFF AND DUP2 MSTORE PUSH1 0x20 ADD SWAP1 DUP2 MSTORE PUSH1 0x20 ADD PUSH0 KECCAK256 PUSH0 PUSH2 0x100 EXP DUP2 SLOAD DUP2 PUSH20 0xFFFFFFFFFFFFFFFFFFFFFFFFFFFFFFFFFFFFFFFF MUL NOT AND SWAP1 DUP4 PUSH20 0xFFFFFFFFFFFFFFFFFFFFFFFFFFFFFFFFFFFFFFFF AND MUL OR SWAP1 SSTORE POP CALLER PUSH20 0xFFFFFFFFFFFFFFFFFFFFFFFFFFFFFFFFFFFFFFFF AND PUSH32 0x3DBEA1B4CE5F95137FDCAC9B1D685825C3D70ACE830DF1CA5A181D3887ADD410 DUP5 CALLVALUE TIMESTAMP PUSH1 0x40 MLOAD PUSH2 0x5CC SWAP4 SWAP3 SWAP2 SWAP1 PUSH2 0x1854 JUMP JUMPDEST PUSH1 0x40 MLOAD DUP1 SWAP2 SUB SWAP1 LOG2 POP POP POP JUMP JUMPDEST PUSH1 0x1 PUSH1 0x20 MSTORE DUP2 PUSH0 MSTORE PUSH1 0x40 PUSH0 KECCAK256 PUSH1 0x20 MSTORE DUP1 PUSH0 MSTORE PUSH1 0x40 PUSH0 KECCAK256 PUSH0 SWAP2 POP SWAP2 POP SWAP1 SLOAD SWAP1 PUSH2 0x100 EXP SWAP1 DIV PUSH20 0xFFFFFFFFFFFFFFFFFFFFFFFFFFFFFFFFFFFFFFFF AND DUP2 JUMP JUMPDEST PUSH1 0x60 PUSH0 PUSH1 0x2 SLOAD PUSH8 0xFFFFFFFFFFFFFFFF DUP2 GT ISZERO PUSH2 0x635 JUMPI PUSH2 0x634 PUSH2 0x14B2 JUMP JUMPDEST JUMPDEST PUSH1 0x40 MLOAD SWAP1 DUP1 DUP3 MSTORE DUP1 PUSH1 0x20 MUL PUSH1 0x20 ADD DUP3 ADD PUSH1 0x40 MSTORE DUP1 ISZERO PUSH2 0x66E JUMPI DUP2 PUSH1 0x20 ADD JUMPDEST PUSH2 0x65B PUSH2 0xE3D JUMP JUMPDEST DUP2 MSTORE PUSH1 0x20 ADD SWAP1 PUSH1 0x1 SWAP1 SUB SWAP1 DUP2 PUSH2 0x653 JUMPI SWAP1 POP JUMPDEST POP SWAP1 POP PUSH0 JUMPDEST PUSH1 0x2 SLOAD DUP2 LT ISZERO PUSH2 0x9C7 JUMPI PUSH0 DUP1 DUP3 DUP2 MSTORE PUSH1 0x20 ADD SWAP1 DUP2 MSTORE PUSH1 0x20 ADD PUSH0 KECCAK256 PUSH1 0x40 MLOAD DUP1 PUSH2 0x120 ADD PUSH1 0x40 MSTORE SWAP1 DUP2 PUSH0 DUP3 ADD PUSH0 SWAP1 SLOAD SWAP1 PUSH2 0x100 EXP SWAP1 DIV PUSH20 0xFFFFFFFFFFFFFFFFFFFFFFFFFFFFFFFFFFFFFFFF AND PUSH20 0xFFFFFFFFFFFFFFFFFFFFFFFFFFFFFFFFFFFFFFFF AND PUSH20 0xFFFFFFFFFFFFFFFFFFFFFFFFFFFFFFFFFFFFFFFF AND DUP2 MSTORE PUSH1 0x20 ADD PUSH1 0x1 DUP3 ADD DUP1 SLOAD PUSH2 0x6FD SWAP1 PUSH2 0x16CE JUMP JUMPDEST DUP1 PUSH1 0x1F ADD PUSH1 0x20 DUP1 SWAP2 DIV MUL PUSH1 0x20 ADD PUSH1 0x40 MLOAD SWAP1 DUP2 ADD PUSH1 0x40 MSTORE DUP1 SWAP3 SWAP2 SWAP1 DUP2 DUP2 MSTORE PUSH1 0x20 ADD DUP3 DUP1 SLOAD PUSH2 0x729 SWAP1 PUSH2 0x16CE JUMP JUMPDEST DUP1 ISZERO PUSH2 0x774 JUMPI DUP1 PUSH1 0x1F LT PUSH2 0x74B JUMPI PUSH2 0x100 DUP1 DUP4 SLOAD DIV MUL DUP4 MSTORE SWAP2 PUSH1 0x20 ADD SWAP2 PUSH2 0x774 JUMP JUMPDEST DUP3 ADD SWAP2 SWAP1 PUSH0 MSTORE PUSH1 0x20 PUSH0 KECCAK256 SWAP1 JUMPDEST DUP2 SLOAD DUP2 MSTORE SWAP1 PUSH1 0x1 ADD SWAP1 PUSH1 0x20 ADD DUP1 DUP4 GT PUSH2 0x757 JUMPI DUP3 SWAP1 SUB PUSH1 0x1F AND DUP3 ADD SWAP2 JUMPDEST POP POP POP POP POP DUP2 MSTORE PUSH1 0x20 ADD PUSH1 0x2 DUP3 ADD DUP1 SLOAD PUSH2 0x78D SWAP1 PUSH2 0x16CE JUMP JUMPDEST DUP1 PUSH1 0x1F ADD PUSH1 0x20 DUP1 SWAP2 DIV MUL PUSH1 0x20 ADD PUSH1 0x40 MLOAD SWAP1 DUP2 ADD PUSH1 0x40 MSTORE DUP1 SWAP3 SWAP2 SWAP1 DUP2 DUP2 MSTORE PUSH1 0x20 ADD DUP3 DUP1 SLOAD PUSH2 0x7B9 SWAP1 PUSH2 0x16CE JUMP JUMPDEST DUP1 ISZERO PUSH2 0x804 JUMPI DUP1 PUSH1 0x1F LT PUSH2 0x7DB JUMPI PUSH2 0x100 DUP1 DUP4 SLOAD DIV MUL DUP4 MSTORE SWAP2 PUSH1 0x20 ADD SWAP2 PUSH2 0x804 JUMP JUMPDEST DUP3 ADD SWAP2 SWAP1 PUSH0 MSTORE PUSH1 0x20 PUSH0 KECCAK256 SWAP1 JUMPDEST DUP2 SLOAD DUP2 MSTORE SWAP1 PUSH1 0x1 ADD SWAP1 PUSH1 0x20 ADD DUP1 DUP4 GT PUSH2 0x7E7 JUMPI DUP3 SWAP1 SUB PUSH1 0x1F AND DUP3 ADD SWAP2 JUMPDEST POP POP POP POP POP DUP2 MSTORE PUSH1 0x20 ADD PUSH1 0x3 DUP3 ADD SLOAD DUP2 MSTORE PUSH1 0x20 ADD PUSH1 0x4 DUP3 ADD SLOAD DUP2 MSTORE PUSH1 0x20 ADD PUSH1 0x5 DUP3 ADD SLOAD DUP2 MSTORE PUSH1 0x20 ADD PUSH1 0x6 DUP3 ADD DUP1 SLOAD PUSH2 0x83B SWAP1 PUSH2 0x16CE JUMP JUMPDEST DUP1 PUSH1 0x1F ADD PUSH1 0x20 DUP1 SWAP2 DIV MUL PUSH1 0x20 ADD PUSH1 0x40 MLOAD SWAP1 DUP2 ADD PUSH1 0x40 MSTORE DUP1 SWAP3 SWAP2 SWAP1 DUP2 DUP2 MSTORE PUSH1 0x20 ADD DUP3 DUP1 SLOAD PUSH2 0x867 SWAP1 PUSH2 0x16CE JUMP JUMPDEST DUP1 ISZERO PUSH2 0x8B2 JUMPI DUP1 PUSH1 0x1F LT PUSH2 0x889 JUMPI PUSH2 0x100 DUP1 DUP4 SLOAD DIV MUL DUP4 MSTORE SWAP2 PUSH1 0x20 ADD SWAP2 PUSH2 0x8B2 JUMP JUMPDEST DUP3 ADD SWAP2 SWAP1 PUSH0 MSTORE PUSH1 0x20 PUSH0 KECCAK256 SWAP1 JUMPDEST DUP2 SLOAD DUP2 MSTORE SWAP1 PUSH1 0x1 ADD SWAP1 PUSH1 0x20 ADD DUP1 DUP4 GT PUSH2 0x895 JUMPI DUP3 SWAP1 SUB PUSH1 0x1F AND DUP3 ADD SWAP2 JUMPDEST POP POP POP POP POP DUP2 MSTORE PUSH1 0x20 ADD PUSH1 0x7 DUP3 ADD DUP1 SLOAD DUP1 PUSH1 0x20 MUL PUSH1 0x20 ADD PUSH1 0x40 MLOAD SWAP1 DUP2 ADD PUSH1 0x40 MSTORE DUP1 SWAP3 SWAP2 SWAP1 DUP2 DUP2 MSTORE PUSH1 0x20 ADD DUP3 DUP1 SLOAD DUP1 ISZERO PUSH2 0x93D JUMPI PUSH1 0x20 MUL DUP3 ADD SWAP2 SWAP1 PUSH0 MSTORE PUSH1 0x20 PUSH0 KECCAK256 SWAP1 JUMPDEST DUP2 PUSH0 SWAP1 SLOAD SWAP1 PUSH2 0x100 EXP SWAP1 DIV PUSH20 0xFFFFFFFFFFFFFFFFFFFFFFFFFFFFFFFFFFFFFFFF AND PUSH20 0xFFFFFFFFFFFFFFFFFFFFFFFFFFFFFFFFFFFFFFFF AND DUP2 MSTORE PUSH1 0x20 ADD SWAP1 PUSH1 0x1 ADD SWAP1 DUP1 DUP4 GT PUSH2 0x8F4 JUMPI JUMPDEST POP POP POP POP POP DUP2 MSTORE PUSH1 0x20 ADD PUSH1 0x8 DUP3 ADD DUP1 SLOAD DUP1 PUSH1 0x20 MUL PUSH1 0x20 ADD PUSH1 0x40 MLOAD SWAP1 DUP2 ADD PUSH1 0x40 MSTORE DUP1 SWAP3 SWAP2 SWAP1 DUP2 DUP2 MSTORE PUSH1 0x20 ADD DUP3 DUP1 SLOAD DUP1 ISZERO PUSH2 0x993 JUMPI PUSH1 0x20 MUL DUP3 ADD SWAP2 SWAP1 PUSH0 MSTORE PUSH1 0x20 PUSH0 KECCAK256 SWAP1 JUMPDEST DUP2 SLOAD DUP2 MSTORE PUSH1 0x20 ADD SWAP1 PUSH1 0x1 ADD SWAP1 DUP1 DUP4 GT PUSH2 0x97F JUMPI JUMPDEST POP POP POP POP POP DUP2 MSTORE POP POP DUP3 DUP3 DUP2 MLOAD DUP2 LT PUSH2 0x9AF JUMPI PUSH2 0x9AE PUSH2 0x1889 JUMP JUMPDEST JUMPDEST PUSH1 0x20 MUL PUSH1 0x20 ADD ADD DUP2 SWAP1 MSTORE POP DUP1 DUP1 PUSH1 0x1 ADD SWAP2 POP POP PUSH2 0x673 JUMP JUMPDEST POP DUP1 SWAP2 POP POP SWAP1 JUMP JUMPDEST PUSH0 DUP1 PUSH0 DUP4 DUP2 MSTORE PUSH1 0x20 ADD SWAP1 DUP2 MSTORE PUSH1 0x20 ADD PUSH0 KECCAK256 SWAP1 POP DUP1 PUSH1 0x4 ADD SLOAD TIMESTAMP LT ISZERO PUSH2 0xA29 JUMPI PUSH1 0x40 MLOAD PUSH32 0x8C379A000000000000000000000000000000000000000000000000000000000 DUP2 MSTORE PUSH1 0x4 ADD PUSH2 0xA20 SWAP1 PUSH2 0x1900 JUMP JUMPDEST PUSH1 0x40 MLOAD DUP1 SWAP2 SUB SWAP1 REVERT JUMPDEST DUP1 PUSH1 0x3 ADD SLOAD DUP2 PUSH1 0x5 ADD SLOAD LT PUSH2 0xA73 JUMPI PUSH1 0x40 MLOAD PUSH32 0x8C379A000000000000000000000000000000000000000000000000000000000 DUP2 MSTORE PUSH1 0x4 ADD PUSH2 0xA6A SWAP1 PUSH2 0x198E JUMP JUMPDEST PUSH1 0x40 MLOAD DUP1 SWAP2 SUB SWAP1 REVERT JUMPDEST PUSH0 JUMPDEST DUP2 PUSH1 0x7 ADD DUP1 SLOAD SWAP1 POP DUP2 LT ISZERO PUSH2 0xC5F JUMPI PUSH0 DUP3 PUSH1 0x7 ADD DUP3 DUP2 SLOAD DUP2 LT PUSH2 0xA9B JUMPI PUSH2 0xA9A PUSH2 0x1889 JUMP JUMPDEST JUMPDEST SWAP1 PUSH0 MSTORE PUSH1 0x20 PUSH0 KECCAK256 ADD PUSH0 SWAP1 SLOAD SWAP1 PUSH2 0x100 EXP SWAP1 DIV PUSH20 0xFFFFFFFFFFFFFFFFFFFFFFFFFFFFFFFFFFFFFFFF AND SWAP1 POP PUSH0 DUP4 PUSH1 0x8 ADD DUP4 DUP2 SLOAD DUP2 LT PUSH2 0xADC JUMPI PUSH2 0xADB PUSH2 0x1889 JUMP JUMPDEST JUMPDEST SWAP1 PUSH0 MSTORE PUSH1 0x20 PUSH0 KECCAK256 ADD SLOAD SWAP1 POP PUSH0 PUSH1 0x1 PUSH0 DUP8 DUP2 MSTORE PUSH1 0x20 ADD SWAP1 DUP2 MSTORE PUSH1 0x20 ADD PUSH0 KECCAK256 PUSH0 DUP5 PUSH20 0xFFFFFFFFFFFFFFFFFFFFFFFFFFFFFFFFFFFFFFFF AND PUSH20 0xFFFFFFFFFFFFFFFFFFFFFFFFFFFFFFFFFFFFFFFF AND DUP2 MSTORE PUSH1 0x20 ADD SWAP1 DUP2 MSTORE PUSH1 0x20 ADD PUSH0 KECCAK256 PUSH0 SWAP1 SLOAD SWAP1 PUSH2 0x100 EXP SWAP1 DIV PUSH20 0xFFFFFFFFFFFFFFFFFFFFFFFFFFFFFFFFFFFFFFFF AND SWAP1 POP PUSH0 DUP2 PUSH20 0xFFFFFFFFFFFFFFFFFFFFFFFFFFFFFFFFFFFFFFFF AND DUP4 PUSH1 0x40 MLOAD PUSH2 0xB7B SWAP1 PUSH2 0x19D9 JUMP JUMPDEST PUSH0 PUSH1 0x40 MLOAD DUP1 DUP4 SUB DUP2 DUP6 DUP8 GAS CALL SWAP3 POP POP POP RETURNDATASIZE DUP1 PUSH0 DUP2 EQ PUSH2 0xBB5 JUMPI PUSH1 0x40 MLOAD SWAP2 POP PUSH1 0x1F NOT PUSH1 0x3F RETURNDATASIZE ADD AND DUP3 ADD PUSH1 0x40 MSTORE RETURNDATASIZE DUP3 MSTORE RETURNDATASIZE PUSH0 PUSH1 0x20 DUP5 ADD RETURNDATACOPY PUSH2 0xBBA JUMP JUMPDEST PUSH1 0x60 SWAP2 POP JUMPDEST POP POP SWAP1 POP DUP1 PUSH2 0xBFE JUMPI PUSH1 0x40 MLOAD PUSH32 0x8C379A000000000000000000000000000000000000000000000000000000000 DUP2 MSTORE PUSH1 0x4 ADD PUSH2 0xBF5 SWAP1 PUSH2 0x1A37 JUMP JUMPDEST PUSH1 0x40 MLOAD DUP1 SWAP2 SUB SWAP1 REVERT JUMPDEST DUP4 PUSH20 0xFFFFFFFFFFFFFFFFFFFFFFFFFFFFFFFFFFFFFFFF AND PUSH32 0x7CA5472B7EA78C2C0141C5A12EE6D170CF4CE8ED06BE3D22C8252DDFC7A6A2C4 DUP9 DUP6 PUSH1 0x40 MLOAD PUSH2 0xC46 SWAP3 SWAP2 SWAP1 PUSH2 0x1A55 JUMP JUMPDEST PUSH1 0x40 MLOAD DUP1 SWAP2 SUB SWAP1 LOG2 POP POP POP POP DUP1 DUP1 PUSH1 0x1 ADD SWAP2 POP POP PUSH2 0xA75 JUMP JUMPDEST POP PUSH0 DUP2 PUSH1 0x5 ADD DUP2 SWAP1 SSTORE POP DUP1 PUSH1 0x7 ADD PUSH0 PUSH2 0xC78 SWAP2 SWAP1 PUSH2 0xE9B JUMP JUMPDEST DUP1 PUSH1 0x8 ADD PUSH0 PUSH2 0xC87 SWAP2 SWAP1 PUSH2 0xEB9 JUMP JUMPDEST POP POP JUMP JUMPDEST PUSH0 DUP1 DUP5 GT PUSH2 0xCCE JUMPI PUSH1 0x40 MLOAD PUSH32 0x8C379A000000000000000000000000000000000000000000000000000000000 DUP2 MSTORE PUSH1 0x4 ADD PUSH2 0xCC5 SWAP1 PUSH2 0x1AEC JUMP JUMPDEST PUSH1 0x40 MLOAD DUP1 SWAP2 SUB SWAP1 REVERT JUMPDEST TIMESTAMP DUP4 GT PUSH2 0xD10 JUMPI PUSH1 0x40 MLOAD PUSH32 0x8C379A000000000000000000000000000000000000000000000000000000000 DUP2 MSTORE PUSH1 0x4 ADD PUSH2 0xD07 SWAP1 PUSH2 0x1B7A JUMP JUMPDEST PUSH1 0x40 MLOAD DUP1 SWAP2 SUB SWAP1 REVERT JUMPDEST PUSH0 DUP1 PUSH0 PUSH1 0x2 SLOAD DUP2 MSTORE PUSH1 0x20 ADD SWAP1 DUP2 MSTORE PUSH1 0x20 ADD PUSH0 KECCAK256 SWAP1 POP CALLER DUP2 PUSH0 ADD PUSH0 PUSH2 0x100 EXP DUP2 SLOAD DUP2 PUSH20 0xFFFFFFFFFFFFFFFFFFFFFFFFFFFFFFFFFFFFFFFF MUL NOT AND SWAP1 DUP4 PUSH20 0xFFFFFFFFFFFFFFFFFFFFFFFFFFFFFFFFFFFFFFFF AND MUL OR SWAP1 SSTORE POP DUP7 DUP2 PUSH1 0x1 ADD SWAP1 DUP2 PUSH2 0xD77 SWAP2 SWAP1 PUSH2 0x1D35 JUMP JUMPDEST POP DUP6 DUP2 PUSH1 0x2 ADD SWAP1 DUP2 PUSH2 0xD89 SWAP2 SWAP1 PUSH2 0x1D35 JUMP JUMPDEST POP DUP5 DUP2 PUSH1 0x3 ADD DUP2 SWAP1 SSTORE POP DUP4 DUP2 PUSH1 0x4 ADD DUP2 SWAP1 SSTORE POP PUSH0 DUP2 PUSH1 0x5 ADD DUP2 SWAP1 SSTORE POP DUP3 DUP2 PUSH1 0x6 ADD SWAP1 DUP2 PUSH2 0xDB6 SWAP2 SWAP1 PUSH2 0x1D35 JUMP JUMPDEST POP CALLER PUSH20 0xFFFFFFFFFFFFFFFFFFFFFFFFFFFFFFFFFFFFFFFF AND PUSH32 0x91B289A829E71D811B8C69E4A24BA2D40D115D8A236E9A724CB3BB2D43CF7223 PUSH1 0x2 SLOAD DUP8 DUP8 PUSH1 0x40 MLOAD PUSH2 0xE03 SWAP4 SWAP3 SWAP2 SWAP1 PUSH2 0x1854 JUMP JUMPDEST PUSH1 0x40 MLOAD DUP1 SWAP2 SUB SWAP1 LOG2 PUSH1 0x2 PUSH0 DUP2 SLOAD DUP1 SWAP3 SWAP2 SWAP1 PUSH2 0xE1D SWAP1 PUSH2 0x1E04 JUMP JUMPDEST SWAP2 SWAP1 POP SSTORE POP PUSH1 0x1 PUSH1 0x2 SLOAD PUSH2 0xE31 SWAP2 SWAP1 PUSH2 0x1E4B JUMP JUMPDEST SWAP2 POP POP SWAP6 SWAP5 POP POP POP POP POP JUMP JUMPDEST PUSH1 0x40 MLOAD DUP1 PUSH2 0x120 ADD PUSH1 0x40 MSTORE DUP1 PUSH0 PUSH20 0xFFFFFFFFFFFFFFFFFFFFFFFFFFFFFFFFFFFFFFFF AND DUP2 MSTORE PUSH1 0x20 ADD PUSH1 0x60 DUP2 MSTORE PUSH1 0x20 ADD PUSH1 0x60 DUP2 MSTORE PUSH1 0x20 ADD PUSH0 DUP2 MSTORE PUSH1 0x20 ADD PUSH0 DUP2 MSTORE PUSH1 0x20 ADD PUSH0 DUP2 MSTORE PUSH1 0x20 ADD PUSH1 0x60 DUP2 MSTORE PUSH1 0x20 ADD PUSH1 0x60 DUP2 MSTORE PUSH1 0x20 ADD PUSH1 0x60 DUP2 MSTORE POP SWAP1 JUMP JUMPDEST POP DUP1 SLOAD PUSH0 DUP3 SSTORE SWAP1 PUSH0 MSTORE PUSH1 0x20 PUSH0 KECCAK256 SWAP1 DUP2 ADD SWAP1 PUSH2 0xEB6 SWAP2 SWAP1 PUSH2 0xED7 JUMP JUMPDEST POP JUMP JUMPDEST POP DUP1 SLOAD PUSH0 DUP3 SSTORE SWAP1 PUSH0 MSTORE PUSH1 0x20 PUSH0 KECCAK256 SWAP1 DUP2 ADD SWAP1 PUSH2 0xED4 SWAP2 SWAP1 PUSH2 0xED7 JUMP JUMPDEST POP JUMP JUMPDEST JUMPDEST DUP1 DUP3 GT ISZERO PUSH2 0xEEE JUMPI PUSH0 DUP2 PUSH0 SWAP1 SSTORE POP PUSH1 0x1 ADD PUSH2 0xED8 JUMP JUMPDEST POP SWAP1 JUMP JUMPDEST PUSH0 DUP2 SWAP1 POP SWAP2 SWAP1 POP JUMP JUMPDEST PUSH2 0xF04 DUP2 PUSH2 0xEF2 JUMP JUMPDEST DUP3 MSTORE POP POP JUMP JUMPDEST PUSH0 PUSH1 0x20 DUP3 ADD SWAP1 POP PUSH2 0xF1D PUSH0 DUP4 ADD DUP5 PUSH2 0xEFB JUMP JUMPDEST SWAP3 SWAP2 POP POP JUMP JUMPDEST PUSH0 PUSH1 0x40 MLOAD SWAP1 POP SWAP1 JUMP JUMPDEST PUSH0 DUP1 REVERT JUMPDEST PUSH0 DUP1 REVERT JUMPDEST PUSH2 0xF3D DUP2 PUSH2 0xEF2 JUMP JUMPDEST DUP2 EQ PUSH2 0xF47 JUMPI PUSH0 DUP1 REVERT JUMPDEST POP JUMP JUMPDEST PUSH0 DUP2 CALLDATALOAD SWAP1 POP PUSH2 0xF58 DUP2 PUSH2 0xF34 JUMP JUMPDEST SWAP3 SWAP2 POP POP JUMP JUMPDEST PUSH0 PUSH1 0x20 DUP3 DUP5 SUB SLT ISZERO PUSH2 0xF73 JUMPI PUSH2 0xF72 PUSH2 0xF2C JUMP JUMPDEST JUMPDEST PUSH0 PUSH2 0xF80 DUP5 DUP3 DUP6 ADD PUSH2 0xF4A JUMP JUMPDEST SWAP2 POP POP SWAP3 SWAP2 POP POP JUMP JUMPDEST PUSH0 PUSH20 0xFFFFFFFFFFFFFFFFFFFFFFFFFFFFFFFFFFFFFFFF DUP3 AND SWAP1 POP SWAP2 SWAP1 POP JUMP JUMPDEST PUSH0 PUSH2 0xFB2 DUP3 PUSH2 0xF89 JUMP JUMPDEST SWAP1 POP SWAP2 SWAP1 POP JUMP JUMPDEST PUSH2 0xFC2 DUP2 PUSH2 0xFA8 JUMP JUMPDEST DUP3 MSTORE POP POP JUMP JUMPDEST PUSH0 DUP2 MLOAD SWAP1 POP SWAP2 SWAP1 POP JUMP JUMPDEST PUSH0 DUP3 DUP3 MSTORE PUSH1 0x20 DUP3 ADD SWAP1 POP SWAP3 SWAP2 POP POP JUMP JUMPDEST DUP3 DUP2 DUP4 MCOPY PUSH0 DUP4 DUP4 ADD MSTORE POP POP POP JUMP JUMPDEST PUSH0 PUSH1 0x1F NOT PUSH1 0x1F DUP4 ADD AND SWAP1 POP SWAP2 SWAP1 POP JUMP JUMPDEST PUSH0 PUSH2 0x100A DUP3 PUSH2 0xFC8 JUMP JUMPDEST PUSH2 0x1014 DUP2 DUP6 PUSH2 0xFD2 JUMP JUMPDEST SWAP4 POP PUSH2 0x1024 DUP2 DUP6 PUSH1 0x20 DUP7 ADD PUSH2 0xFE2 JUMP JUMPDEST PUSH2 0x102D DUP2 PUSH2 0xFF0 JUMP JUMPDEST DUP5 ADD SWAP2 POP POP SWAP3 SWAP2 POP POP JUMP JUMPDEST PUSH0 PUSH1 0xE0 DUP3 ADD SWAP1 POP PUSH2 0x104B PUSH0 DUP4 ADD DUP11 PUSH2 0xFB9 JUMP JUMPDEST DUP2 DUP2 SUB PUSH1 0x20 DUP4 ADD MSTORE PUSH2 0x105D DUP2 DUP10 PUSH2 0x1000 JUMP JUMPDEST SWAP1 POP DUP2 DUP2 SUB PUSH1 0x40 DUP4 ADD MSTORE PUSH2 0x1071 DUP2 DUP9 PUSH2 0x1000 JUMP JUMPDEST SWAP1 POP PUSH2 0x1080 PUSH1 0x60 DUP4 ADD DUP8 PUSH2 0xEFB JUMP JUMPDEST PUSH2 0x108D PUSH1 0x80 DUP4 ADD DUP7 PUSH2 0xEFB JUMP JUMPDEST PUSH2 0x109A PUSH1 0xA0 DUP4 ADD DUP6 PUSH2 0xEFB JUMP JUMPDEST DUP2 DUP2 SUB PUSH1 0xC0 DUP4 ADD MSTORE PUSH2 0x10AC DUP2 DUP5 PUSH2 0x1000 JUMP JUMPDEST SWAP1 POP SWAP9 SWAP8 POP POP POP POP POP POP POP POP JUMP JUMPDEST PUSH2 0x10C3 DUP2 PUSH2 0xFA8 JUMP JUMPDEST DUP2 EQ PUSH2 0x10CD JUMPI PUSH0 DUP1 REVERT JUMPDEST POP JUMP JUMPDEST PUSH0 DUP2 CALLDATALOAD SWAP1 POP PUSH2 0x10DE DUP2 PUSH2 0x10BA JUMP JUMPDEST SWAP3 SWAP2 POP POP JUMP JUMPDEST PUSH0 DUP1 PUSH1 0x40 DUP4 DUP6 SUB SLT ISZERO PUSH2 0x10FA JUMPI PUSH2 0x10F9 PUSH2 0xF2C JUMP JUMPDEST JUMPDEST PUSH0 PUSH2 0x1107 DUP6 DUP3 DUP7 ADD PUSH2 0xF4A JUMP JUMPDEST SWAP3 POP POP PUSH1 0x20 PUSH2 0x1118 DUP6 DUP3 DUP7 ADD PUSH2 0x10D0 JUMP JUMPDEST SWAP2 POP POP SWAP3 POP SWAP3 SWAP1 POP JUMP JUMPDEST PUSH0 PUSH1 0x20 DUP3 ADD SWAP1 POP PUSH2 0x1135 PUSH0 DUP4 ADD DUP5 PUSH2 0xFB9 JUMP JUMPDEST SWAP3 SWAP2 POP POP JUMP JUMPDEST PUSH0 DUP2 MLOAD SWAP1 POP SWAP2 SWAP1 POP JUMP JUMPDEST PUSH0 DUP3 DUP3 MSTORE PUSH1 0x20 DUP3 ADD SWAP1 POP SWAP3 SWAP2 POP POP JUMP JUMPDEST PUSH0 DUP2 SWAP1 POP PUSH1 0x20 DUP3 ADD SWAP1 POP SWAP2 SWAP1 POP JUMP JUMPDEST PUSH2 0x116D DUP2 PUSH2 0xFA8 JUMP JUMPDEST DUP3 MSTORE POP POP JUMP JUMPDEST PUSH0 DUP3 DUP3 MSTORE PUSH1 0x20 DUP3 ADD SWAP1 POP SWAP3 SWAP2 POP POP JUMP JUMPDEST PUSH0 PUSH2 0x118D DUP3 PUSH2 0xFC8 JUMP JUMPDEST PUSH2 0x1197 DUP2 DUP6 PUSH2 0x1173 JUMP JUMPDEST SWAP4 POP PUSH2 0x11A7 DUP2 DUP6 PUSH1 0x20 DUP7 ADD PUSH2 0xFE2 JUMP JUMPDEST PUSH2 0x11B0 DUP2 PUSH2 0xFF0 JUMP JUMPDEST DUP5 ADD SWAP2 POP POP SWAP3 SWAP2 POP POP JUMP JUMPDEST PUSH2 0x11C4 DUP2 PUSH2 0xEF2 JUMP JUMPDEST DUP3 MSTORE POP POP JUMP JUMPDEST PUSH0 DUP2 MLOAD SWAP1 POP SWAP2 SWAP1 POP JUMP JUMPDEST PUSH0 DUP3 DUP3 MSTORE PUSH1 0x20 DUP3 ADD SWAP1 POP SWAP3 SWAP2 POP POP JUMP JUMPDEST PUSH0 DUP2 SWAP1 POP PUSH1 0x20 DUP3 ADD SWAP1 POP SWAP2 SWAP1 POP JUMP JUMPDEST PUSH0 PUSH2 0x11FE DUP4 DUP4 PUSH2 0x1164 JUMP JUMPDEST PUSH1 0x20 DUP4 ADD SWAP1 POP SWAP3 SWAP2 POP POP JUMP JUMPDEST PUSH0 PUSH1 0x20 DUP3 ADD SWAP1 POP SWAP2 SWAP1 POP JUMP JUMPDEST PUSH0 PUSH2 0x1220 DUP3 PUSH2 0x11CA JUMP JUMPDEST PUSH2 0x122A DUP2 DUP6 PUSH2 0x11D4 JUMP JUMPDEST SWAP4 POP PUSH2 0x1235 DUP4 PUSH2 0x11E4 JUMP JUMPDEST DUP1 PUSH0 JUMPDEST DUP4 DUP2 LT ISZERO PUSH2 0x1265 JUMPI DUP2 MLOAD PUSH2 0x124C DUP9 DUP3 PUSH2 0x11F3 JUMP JUMPDEST SWAP8 POP PUSH2 0x1257 DUP4 PUSH2 0x120A JUMP JUMPDEST SWAP3 POP POP PUSH1 0x1 DUP2 ADD SWAP1 POP PUSH2 0x1238 JUMP JUMPDEST POP DUP6 SWAP4 POP POP POP POP SWAP3 SWAP2 POP POP JUMP JUMPDEST PUSH0 DUP2 MLOAD SWAP1 POP SWAP2 SWAP1 POP JUMP JUMPDEST PUSH0 DUP3 DUP3 MSTORE PUSH1 0x20 DUP3 ADD SWAP1 POP SWAP3 SWAP2 POP POP JUMP JUMPDEST PUSH0 DUP2 SWAP1 POP PUSH1 0x20 DUP3 ADD SWAP1 POP SWAP2 SWAP1 POP JUMP JUMPDEST PUSH0 PUSH2 0x12A6 DUP4 DUP4 PUSH2 0x11BB JUMP JUMPDEST PUSH1 0x20 DUP4 ADD SWAP1 POP SWAP3 SWAP2 POP POP JUMP JUMPDEST PUSH0 PUSH1 0x20 DUP3 ADD SWAP1 POP SWAP2 SWAP1 POP JUMP JUMPDEST PUSH0 PUSH2 0x12C8 DUP3 PUSH2 0x1272 JUMP JUMPDEST PUSH2 0x12D2 DUP2 DUP6 PUSH2 0x127C JUMP JUMPDEST SWAP4 POP PUSH2 0x12DD DUP4 PUSH2 0x128C JUMP JUMPDEST DUP1 PUSH0 JUMPDEST DUP4 DUP2 LT ISZERO PUSH2 0x130D JUMPI DUP2 MLOAD PUSH2 0x12F4 DUP9 DUP3 PUSH2 0x129B JUMP JUMPDEST SWAP8 POP PUSH2 0x12FF DUP4 PUSH2 0x12B2 JUMP JUMPDEST SWAP3 POP POP PUSH1 0x1 DUP2 ADD SWAP1 POP PUSH2 0x12E0 JUMP JUMPDEST POP DUP6 SWAP4 POP POP POP POP SWAP3 SWAP2 POP POP JUMP JUMPDEST PUSH0 PUSH2 0x120 DUP4 ADD PUSH0 DUP4 ADD MLOAD PUSH2 0x1330 PUSH0 DUP7 ADD DUP3 PUSH2 0x1164 JUMP JUMPDEST POP PUSH1 0x20 DUP4 ADD MLOAD DUP5 DUP3 SUB PUSH1 0x20 DUP7 ADD MSTORE PUSH2 0x1348 DUP3 DUP3 PUSH2 0x1183 JUMP JUMPDEST SWAP2 POP POP PUSH1 0x40 DUP4 ADD MLOAD DUP5 DUP3 SUB PUSH1 0x40 DUP7 ADD MSTORE PUSH2 0x1362 DUP3 DUP3 PUSH2 0x1183 JUMP JUMPDEST SWAP2 POP POP PUSH1 0x60 DUP4 ADD MLOAD PUSH2 0x1377 PUSH1 0x60 DUP7 ADD DUP3 PUSH2 0x11BB JUMP JUMPDEST POP PUSH1 0x80 DUP4 ADD MLOAD PUSH2 0x138A PUSH1 0x80 DUP7 ADD DUP3 PUSH2 0x11BB JUMP JUMPDEST POP PUSH1 0xA0 DUP4 ADD MLOAD PUSH2 0x139D PUSH1 0xA0 DUP7 ADD DUP3 PUSH2 0x11BB JUMP JUMPDEST POP PUSH1 0xC0 DUP4 ADD MLOAD DUP5 DUP3 SUB PUSH1 0xC0 DUP7 ADD MSTORE PUSH2 0x13B5 DUP3 DUP3 PUSH2 0x1183 JUMP JUMPDEST SWAP2 POP POP PUSH1 0xE0 DUP4 ADD MLOAD DUP5 DUP3 SUB PUSH1 0xE0 DUP7 ADD MSTORE PUSH2 0x13CF DUP3 DUP3 PUSH2 0x1216 JUMP JUMPDEST SWAP2 POP POP PUSH2 0x100 DUP4 ADD MLOAD DUP5 DUP3 SUB PUSH2 0x100 DUP7 ADD MSTORE PUSH2 0x13EB DUP3 DUP3 PUSH2 0x12BE JUMP JUMPDEST SWAP2 POP POP DUP1 SWAP2 POP POP SWAP3 SWAP2 POP POP JUMP JUMPDEST PUSH0 PUSH2 0x1403 DUP4 DUP4 PUSH2 0x131A JUMP JUMPDEST SWAP1 POP SWAP3 SWAP2 POP POP JUMP JUMPDEST PUSH0 PUSH1 0x20 DUP3 ADD SWAP1 POP SWAP2 SWAP1 POP JUMP JUMPDEST PUSH0 PUSH2 0x1421 DUP3 PUSH2 0x113B JUMP JUMPDEST PUSH2 0x142B DUP2 DUP6 PUSH2 0x1145 JUMP JUMPDEST SWAP4 POP DUP4 PUSH1 0x20 DUP3 MUL DUP6 ADD PUSH2 0x143D DUP6 PUSH2 0x1155 JUMP JUMPDEST DUP1 PUSH0 JUMPDEST DUP6 DUP2 LT ISZERO PUSH2 0x1478 JUMPI DUP5 DUP5 SUB DUP10 MSTORE DUP2 MLOAD PUSH2 0x1459 DUP6 DUP3 PUSH2 0x13F8 JUMP JUMPDEST SWAP5 POP PUSH2 0x1464 DUP4 PUSH2 0x140B JUMP JUMPDEST SWAP3 POP PUSH1 0x20 DUP11 ADD SWAP10 POP POP PUSH1 0x1 DUP2 ADD SWAP1 POP PUSH2 0x1440 JUMP JUMPDEST POP DUP3 SWAP8 POP DUP8 SWAP6 POP POP POP POP POP POP SWAP3 SWAP2 POP POP JUMP JUMPDEST PUSH0 PUSH1 0x20 DUP3 ADD SWAP1 POP DUP2 DUP2 SUB PUSH0 DUP4 ADD MSTORE PUSH2 0x14A2 DUP2 DUP5 PUSH2 0x1417 JUMP JUMPDEST SWAP1 POP SWAP3 SWAP2 POP POP JUMP JUMPDEST PUSH0 DUP1 REVERT JUMPDEST PUSH0 DUP1 REVERT JUMPDEST PUSH32 0x4E487B7100000000000000000000000000000000000000000000000000000000 PUSH0 MSTORE PUSH1 0x41 PUSH1 0x4 MSTORE PUSH1 0x24 PUSH0 REVERT JUMPDEST PUSH2 0x14E8 DUP3 PUSH2 0xFF0 JUMP JUMPDEST DUP2 ADD DUP2 DUP2 LT PUSH8 0xFFFFFFFFFFFFFFFF DUP3 GT OR ISZERO PUSH2 0x1507 JUMPI PUSH2 0x1506 PUSH2 0x14B2 JUMP JUMPDEST JUMPDEST DUP1 PUSH1 0x40 MSTORE POP POP POP JUMP JUMPDEST PUSH0 PUSH2 0x1519 PUSH2 0xF23 JUMP JUMPDEST SWAP1 POP PUSH2 0x1525 DUP3 DUP3 PUSH2 0x14DF JUMP JUMPDEST SWAP2 SWAP1 POP JUMP JUMPDEST PUSH0 PUSH8 0xFFFFFFFFFFFFFFFF DUP3 GT ISZERO PUSH2 0x1544 JUMPI PUSH2 0x1543 PUSH2 0x14B2 JUMP JUMPDEST JUMPDEST PUSH2 0x154D DUP3 PUSH2 0xFF0 JUMP JUMPDEST SWAP1 POP PUSH1 0x20 DUP2 ADD SWAP1 POP SWAP2 SWAP1 POP JUMP JUMPDEST DUP3 DUP2 DUP4 CALLDATACOPY PUSH0 DUP4 DUP4 ADD MSTORE POP POP POP JUMP JUMPDEST PUSH0 PUSH2 0x157A PUSH2 0x1575 DUP5 PUSH2 0x152A JUMP JUMPDEST PUSH2 0x1510 JUMP JUMPDEST SWAP1 POP DUP3 DUP2 MSTORE PUSH1 0x20 DUP2 ADD DUP5 DUP5 DUP5 ADD GT ISZERO PUSH2 0x1596 JUMPI PUSH2 0x1595 PUSH2 0x14AE JUMP JUMPDEST JUMPDEST PUSH2 0x15A1 DUP5 DUP3 DUP6 PUSH2 0x155A JUMP JUMPDEST POP SWAP4 SWAP3 POP POP POP JUMP JUMPDEST PUSH0 DUP3 PUSH1 0x1F DUP4 ADD SLT PUSH2 0x15BD JUMPI PUSH2 0x15BC PUSH2 0x14AA JUMP JUMPDEST JUMPDEST DUP2 CALLDATALOAD PUSH2 0x15CD DUP5 DUP3 PUSH1 0x20 DUP7 ADD PUSH2 0x1568 JUMP JUMPDEST SWAP2 POP POP SWAP3 SWAP2 POP POP JUMP JUMPDEST PUSH0 DUP1 PUSH0 DUP1 PUSH0 PUSH1 0xA0 DUP7 DUP9 SUB SLT ISZERO PUSH2 0x15EF JUMPI PUSH2 0x15EE PUSH2 0xF2C JUMP JUMPDEST JUMPDEST PUSH0 DUP7 ADD CALLDATALOAD PUSH8 0xFFFFFFFFFFFFFFFF DUP2 GT ISZERO PUSH2 0x160C JUMPI PUSH2 0x160B PUSH2 0xF30 JUMP JUMPDEST JUMPDEST PUSH2 0x1618 DUP9 DUP3 DUP10 ADD PUSH2 0x15A9 JUMP JUMPDEST SWAP6 POP POP PUSH1 0x20 DUP7 ADD CALLDATALOAD PUSH8 0xFFFFFFFFFFFFFFFF DUP2 GT ISZERO PUSH2 0x1639 JUMPI PUSH2 0x1638 PUSH2 0xF30 JUMP JUMPDEST JUMPDEST PUSH2 0x1645 DUP9 DUP3 DUP10 ADD PUSH2 0x15A9 JUMP JUMPDEST SWAP5 POP POP PUSH1 0x40 PUSH2 0x1656 DUP9 DUP3 DUP10 ADD PUSH2 0xF4A JUMP JUMPDEST SWAP4 POP POP PUSH1 0x60 PUSH2 0x1667 DUP9 DUP3 DUP10 ADD PUSH2 0xF4A JUMP JUMPDEST SWAP3 POP POP PUSH1 0x80 DUP7 ADD CALLDATALOAD PUSH8 0xFFFFFFFFFFFFFFFF DUP2 GT ISZERO PUSH2 0x1688 JUMPI PUSH2 0x1687 PUSH2 0xF30 JUMP JUMPDEST JUMPDEST PUSH2 0x1694 DUP9 DUP3 DUP10 ADD PUSH2 0x15A9 JUMP JUMPDEST SWAP2 POP POP SWAP3 SWAP6 POP SWAP3 SWAP6 SWAP1 SWAP4 POP JUMP JUMPDEST PUSH32 0x4E487B7100000000000000000000000000000000000000000000000000000000 PUSH0 MSTORE PUSH1 0x22 PUSH1 0x4 MSTORE PUSH1 0x24 PUSH0 REVERT JUMPDEST PUSH0 PUSH1 0x2 DUP3 DIV SWAP1 POP PUSH1 0x1 DUP3 AND DUP1 PUSH2 0x16E5 JUMPI PUSH1 0x7F DUP3 AND SWAP2 POP JUMPDEST PUSH1 0x20 DUP3 LT DUP2 SUB PUSH2 0x16F8 JUMPI PUSH2 0x16F7 PUSH2 0x16A1 JUMP JUMPDEST JUMPDEST POP SWAP2 SWAP1 POP JUMP JUMPDEST PUSH32 0x43616D706169676E20646561646C696E6520686173207061737365642E000000 PUSH0 DUP3 ADD MSTORE POP JUMP JUMPDEST PUSH0 PUSH2 0x1732 PUSH1 0x1D DUP4 PUSH2 0xFD2 JUMP JUMPDEST SWAP2 POP PUSH2 0x173D DUP3 PUSH2 0x16FE JUMP JUMPDEST PUSH1 0x20 DUP3 ADD SWAP1 POP SWAP2 SWAP1 POP JUMP JUMPDEST PUSH0 PUSH1 0x20 DUP3 ADD SWAP1 POP DUP2 DUP2 SUB PUSH0 DUP4 ADD MSTORE PUSH2 0x175F DUP2 PUSH2 0x1726 JUMP JUMPDEST SWAP1 POP SWAP2 SWAP1 POP JUMP JUMPDEST PUSH32 0x446F6E6174696F6E206D7573742062652067726561746572207468616E207A65 PUSH0 DUP3 ADD MSTORE PUSH32 0x726F2E0000000000000000000000000000000000000000000000000000000000 PUSH1 0x20 DUP3 ADD MSTORE POP JUMP JUMPDEST PUSH0 PUSH2 0x17C0 PUSH1 0x23 DUP4 PUSH2 0xFD2 JUMP JUMPDEST SWAP2 POP PUSH2 0x17CB DUP3 PUSH2 0x1766 JUMP JUMPDEST PUSH1 0x40 DUP3 ADD SWAP1 POP SWAP2 SWAP1 POP JUMP JUMPDEST PUSH0 PUSH1 0x20 DUP3 ADD SWAP1 POP DUP2 DUP2 SUB PUSH0 DUP4 ADD MSTORE PUSH2 0x17ED DUP2 PUSH2 0x17B4 JUMP JUMPDEST SWAP1 POP SWAP2 SWAP1 POP JUMP JUMPDEST PUSH32 0x4E487B7100000000000000000000000000000000000000000000000000000000 PUSH0 MSTORE PUSH1 0x11 PUSH1 0x4 MSTORE PUSH1 0x24 PUSH0 REVERT JUMPDEST PUSH0 PUSH2 0x182B DUP3 PUSH2 0xEF2 JUMP JUMPDEST SWAP2 POP PUSH2 0x1836 DUP4 PUSH2 0xEF2 JUMP JUMPDEST SWAP3 POP DUP3 DUP3 ADD SWAP1 POP DUP1 DUP3 GT ISZERO PUSH2 0x184E JUMPI PUSH2 0x184D PUSH2 0x17F4 JUMP JUMPDEST JUMPDEST SWAP3 SWAP2 POP POP JUMP JUMPDEST PUSH0 PUSH1 0x60 DUP3 ADD SWAP1 POP PUSH2 0x1867 PUSH0 DUP4 ADD DUP7 PUSH2 0xEFB JUMP JUMPDEST PUSH2 0x1874 PUSH1 0x20 DUP4 ADD DUP6 PUSH2 0xEFB JUMP JUMPDEST PUSH2 0x1881 PUSH1 0x40 DUP4 ADD DUP5 PUSH2 0xEFB JUMP JUMPDEST SWAP5 SWAP4 POP POP POP POP JUMP JUMPDEST PUSH32 0x4E487B7100000000000000000000000000000000000000000000000000000000 PUSH0 MSTORE PUSH1 0x32 PUSH1 0x4 MSTORE PUSH1 0x24 PUSH0 REVERT JUMPDEST PUSH32 0x43616D706169676E206973207374696C6C206163746976652E00000000000000 PUSH0 DUP3 ADD MSTORE POP JUMP JUMPDEST PUSH0 PUSH2 0x18EA PUSH1 0x19 DUP4 PUSH2 0xFD2 JUMP JUMPDEST SWAP2 POP PUSH2 0x18F5 DUP3 PUSH2 0x18B6 JUMP JUMPDEST PUSH1 0x20 DUP3 ADD SWAP1 POP SWAP2 SWAP1 POP JUMP JUMPDEST PUSH0 PUSH1 0x20 DUP3 ADD SWAP1 POP DUP2 DUP2 SUB PUSH0 DUP4 ADD MSTORE PUSH2 0x1917 DUP2 PUSH2 0x18DE JUMP JUMPDEST SWAP1 POP SWAP2 SWAP1 POP JUMP JUMPDEST PUSH32 0x43616D706169676E20776173207375636365737366756C2C206E6F2072656675 PUSH0 DUP3 ADD MSTORE PUSH32 0x6E647320616C6C6F7765642E0000000000000000000000000000000000000000 PUSH1 0x20 DUP3 ADD MSTORE POP JUMP JUMPDEST PUSH0 PUSH2 0x1978 PUSH1 0x2C DUP4 PUSH2 0xFD2 JUMP JUMPDEST SWAP2 POP PUSH2 0x1983 DUP3 PUSH2 0x191E JUMP JUMPDEST PUSH1 0x40 DUP3 ADD SWAP1 POP SWAP2 SWAP1 POP JUMP JUMPDEST PUSH0 PUSH1 0x20 DUP3 ADD SWAP1 POP DUP2 DUP2 SUB PUSH0 DUP4 ADD MSTORE PUSH2 0x19A5 DUP2 PUSH2 0x196C JUMP JUMPDEST SWAP1 POP SWAP2 SWAP1 POP JUMP JUMPDEST PUSH0 DUP2 SWAP1 POP SWAP3 SWAP2 POP POP JUMP JUMPDEST POP JUMP JUMPDEST PUSH0 PUSH2 0x19C4 PUSH0 DUP4 PUSH2 0x19AC JUMP JUMPDEST SWAP2 POP PUSH2 0x19CF DUP3 PUSH2 0x19B6 JUMP JUMPDEST PUSH0 DUP3 ADD SWAP1 POP SWAP2 SWAP1 POP JUMP JUMPDEST PUSH0 PUSH2 0x19E3 DUP3 PUSH2 0x19B9 JUMP JUMPDEST SWAP2 POP DUP2 SWAP1 POP SWAP2 SWAP1 POP JUMP JUMPDEST PUSH32 0x526566756E64206661696C65642E000000000000000000000000000000000000 PUSH0 DUP3 ADD MSTORE POP JUMP JUMPDEST PUSH0 PUSH2 0x1A21 PUSH1 0xE DUP4 PUSH2 0xFD2 JUMP JUMPDEST SWAP2 POP PUSH2 0x1A2C DUP3 PUSH2 0x19ED JUMP JUMPDEST PUSH1 0x20 DUP3 ADD SWAP1 POP SWAP2 SWAP1 POP JUMP JUMPDEST PUSH0 PUSH1 0x20 DUP3 ADD SWAP1 POP DUP2 DUP2 SUB PUSH0 DUP4 ADD MSTORE PUSH2 0x1A4E DUP2 PUSH2 0x1A15 JUMP JUMPDEST SWAP1 POP SWAP2 SWAP1 POP JUMP JUMPDEST PUSH0 PUSH1 0x40 DUP3 ADD SWAP1 POP PUSH2 0x1A68 PUSH0 DUP4 ADD DUP6 PUSH2 0xEFB JUMP JUMPDEST PUSH2 0x1A75 PUSH1 0x20 DUP4 ADD DUP5 PUSH2 0xEFB JUMP JUMPDEST SWAP4 SWAP3 POP POP POP JUMP JUMPDEST PUSH32 0x546172676574206D7573742062652067726561746572207468616E207A65726F PUSH0 DUP3 ADD MSTORE PUSH32 0x2E00000000000000000000000000000000000000000000000000000000000000 PUSH1 0x20 DUP3 ADD MSTORE POP JUMP JUMPDEST PUSH0 PUSH2 0x1AD6 PUSH1 0x21 DUP4 PUSH2 0xFD2 JUMP JUMPDEST SWAP2 POP PUSH2 0x1AE1 DUP3 PUSH2 0x1A7C JUMP JUMPDEST PUSH1 0x40 DUP3 ADD SWAP1 POP SWAP2 SWAP1 POP JUMP JUMPDEST PUSH0 PUSH1 0x20 DUP3 ADD SWAP1 POP DUP2 DUP2 SUB PUSH0 DUP4 ADD MSTORE PUSH2 0x1B03 DUP2 PUSH2 0x1ACA JUMP JUMPDEST SWAP1 POP SWAP2 SWAP1 POP JUMP JUMPDEST PUSH32 0x446561646C696E652073686F756C6420626520696E2074686520667574757265 PUSH0 DUP3 ADD MSTORE PUSH32 0x2E00000000000000000000000000000000000000000000000000000000000000 PUSH1 0x20 DUP3 ADD MSTORE POP JUMP JUMPDEST PUSH0 PUSH2 0x1B64 PUSH1 0x21 DUP4 PUSH2 0xFD2 JUMP JUMPDEST SWAP2 POP PUSH2 0x1B6F DUP3 PUSH2 0x1B0A JUMP JUMPDEST PUSH1 0x40 DUP3 ADD SWAP1 POP SWAP2 SWAP1 POP JUMP JUMPDEST PUSH0 PUSH1 0x20 DUP3 ADD SWAP1 POP DUP2 DUP2 SUB PUSH0 DUP4 ADD MSTORE PUSH2 0x1B91 DUP2 PUSH2 0x1B58 JUMP JUMPDEST SWAP1 POP SWAP2 SWAP1 POP JUMP JUMPDEST PUSH0 DUP2 SWAP1 POP DUP2 PUSH0 MSTORE PUSH1 0x20 PUSH0 KECCAK256 SWAP1 POP SWAP2 SWAP1 POP JUMP JUMPDEST PUSH0 PUSH1 0x20 PUSH1 0x1F DUP4 ADD DIV SWAP1 POP SWAP2 SWAP1 POP JUMP JUMPDEST PUSH0 DUP3 DUP3 SHL SWAP1 POP SWAP3 SWAP2 POP POP JUMP JUMPDEST PUSH0 PUSH1 0x8 DUP4 MUL PUSH2 0x1BF4 PUSH32 0xFFFFFFFFFFFFFFFFFFFFFFFFFFFFFFFFFFFFFFFFFFFFFFFFFFFFFFFFFFFFFFFF DUP3 PUSH2 0x1BB9 JUMP JUMPDEST PUSH2 0x1BFE DUP7 DUP4 PUSH2 0x1BB9 JUMP JUMPDEST SWAP6 POP DUP1 NOT DUP5 AND SWAP4 POP DUP1 DUP7 AND DUP5 OR SWAP3 POP POP POP SWAP4 SWAP3 POP POP POP JUMP JUMPDEST PUSH0 DUP2 SWAP1 POP SWAP2 SWAP1 POP JUMP JUMPDEST PUSH0 PUSH2 0x1C39 PUSH2 0x1C34 PUSH2 0x1C2F DUP5 PUSH2 0xEF2 JUMP JUMPDEST PUSH2 0x1C16 JUMP JUMPDEST PUSH2 0xEF2 JUMP JUMPDEST SWAP1 POP SWAP2 SWAP1 POP JUMP JUMPDEST PUSH0 DUP2 SWAP1 POP SWAP2 SWAP1 POP JUMP JUMPDEST PUSH2 0x1C52 DUP4 PUSH2 0x1C1F JUMP JUMPDEST PUSH2 0x1C66 PUSH2 0x1C5E DUP3 PUSH2 0x1C40 JUMP JUMPDEST DUP5 DUP5 SLOAD PUSH2 0x1BC5 JUMP JUMPDEST DUP3 SSTORE POP POP POP POP JUMP JUMPDEST PUSH0 SWAP1 JUMP JUMPDEST PUSH2 0x1C7A PUSH2 0x1C6E JUMP JUMPDEST PUSH2 0x1C85 DUP2 DUP5 DUP5 PUSH2 0x1C49 JUMP JUMPDEST POP POP POP JUMP JUMPDEST JUMPDEST DUP2 DUP2 LT ISZERO PUSH2 0x1CA8 JUMPI PUSH2 0x1C9D PUSH0 DUP3 PUSH2 0x1C72 JUMP JUMPDEST PUSH1 0x1 DUP2 ADD SWAP1 POP PUSH2 0x1C8B JUMP JUMPDEST POP POP JUMP JUMPDEST PUSH1 0x1F DUP3 GT ISZERO PUSH2 0x1CED JUMPI PUSH2 0x1CBE DUP2 PUSH2 0x1B98 JUMP JUMPDEST PUSH2 0x1CC7 DUP5 PUSH2 0x1BAA JUMP JUMPDEST DUP2 ADD PUSH1 0x20 DUP6 LT ISZERO PUSH2 0x1CD6 JUMPI DUP2 SWAP1 POP JUMPDEST PUSH2 0x1CEA PUSH2 0x1CE2 DUP6 PUSH2 0x1BAA JUMP JUMPDEST DUP4 ADD DUP3 PUSH2 0x1C8A JUMP JUMPDEST POP POP JUMPDEST POP POP POP JUMP JUMPDEST PUSH0 DUP3 DUP3 SHR SWAP1 POP SWAP3 SWAP2 POP POP JUMP JUMPDEST PUSH0 PUSH2 0x1D0D PUSH0 NOT DUP5 PUSH1 0x8 MUL PUSH2 0x1CF2 JUMP JUMPDEST NOT DUP1 DUP4 AND SWAP2 POP POP SWAP3 SWAP2 POP POP JUMP JUMPDEST PUSH0 PUSH2 0x1D25 DUP4 DUP4 PUSH2 0x1CFE JUMP JUMPDEST SWAP2 POP DUP3 PUSH1 0x2 MUL DUP3 OR SWAP1 POP SWAP3 SWAP2 POP POP JUMP JUMPDEST PUSH2 0x1D3E DUP3 PUSH2 0xFC8 JUMP JUMPDEST PUSH8 0xFFFFFFFFFFFFFFFF DUP2 GT ISZERO PUSH2 0x1D57 JUMPI PUSH2 0x1D56 PUSH2 0x14B2 JUMP JUMPDEST JUMPDEST PUSH2 0x1D61 DUP3 SLOAD PUSH2 0x16CE JUMP JUMPDEST PUSH2 0x1D6C DUP3 DUP3 DUP6 PUSH2 0x1CAC JUMP JUMPDEST PUSH0 PUSH1 0x20 SWAP1 POP PUSH1 0x1F DUP4 GT PUSH1 0x1 DUP2 EQ PUSH2 0x1D9D JUMPI PUSH0 DUP5 ISZERO PUSH2 0x1D8B JUMPI DUP3 DUP8 ADD MLOAD SWAP1 POP JUMPDEST PUSH2 0x1D95 DUP6 DUP3 PUSH2 0x1D1A JUMP JUMPDEST DUP7 SSTORE POP PUSH2 0x1DFC JUMP JUMPDEST PUSH1 0x1F NOT DUP5 AND PUSH2 0x1DAB DUP7 PUSH2 0x1B98 JUMP JUMPDEST PUSH0 JUMPDEST DUP3 DUP2 LT ISZERO PUSH2 0x1DD2 JUMPI DUP5 DUP10 ADD MLOAD DUP3 SSTORE PUSH1 0x1 DUP3 ADD SWAP2 POP PUSH1 0x20 DUP6 ADD SWAP5 POP PUSH1 0x20 DUP2 ADD SWAP1 POP PUSH2 0x1DAD JUMP JUMPDEST DUP7 DUP4 LT ISZERO PUSH2 0x1DEF JUMPI DUP5 DUP10 ADD MLOAD PUSH2 0x1DEB PUSH1 0x1F DUP10 AND DUP3 PUSH2 0x1CFE JUMP JUMPDEST DUP4 SSTORE POP JUMPDEST PUSH1 0x1 PUSH1 0x2 DUP9 MUL ADD DUP9 SSTORE POP POP POP JUMPDEST POP POP POP POP POP POP JUMP JUMPDEST PUSH0 PUSH2 0x1E0E DUP3 PUSH2 0xEF2 JUMP JUMPDEST SWAP2 POP PUSH32 0xFFFFFFFFFFFFFFFFFFFFFFFFFFFFFFFFFFFFFFFFFFFFFFFFFFFFFFFFFFFFFFFF DUP3 SUB PUSH2 0x1E40 JUMPI PUSH2 0x1E3F PUSH2 0x17F4 JUMP JUMPDEST JUMPDEST PUSH1 0x1 DUP3 ADD SWAP1 POP SWAP2 SWAP1 POP JUMP JUMPDEST PUSH0 PUSH2 0x1E55 DUP3 PUSH2 0xEF2 JUMP JUMPDEST SWAP2 POP PUSH2 0x1E60 DUP4 PUSH2 0xEF2 JUMP JUMPDEST SWAP3 POP DUP3 DUP3 SUB SWAP1 POP DUP2 DUP2 GT ISZERO PUSH2 0x1E78 JUMPI PUSH2 0x1E77 PUSH2 0x17F4 JUMP JUMPDEST JUMPDEST SWAP3 SWAP2 POP POP JUMP INVALID LOG2 PUSH5 0x6970667358 0x22 SLT KECCAK256 0xC4 GASLIMIT SWAP14 0xB6 0xB8 CALLDATASIZE 0xC8 PUSH5 0xA06C1FA58A SWAP2 PUSH6 0x11E888D5B9A5 PUSH7 0xC8CC440F673FB1 DUP5 0x1E 0xCA PUSH5 0x736F6C6343 STOP ADDMOD BYTE STOP CALLER "
		},
		"gasEstimates": {
			"creation": {
				"codeDepositCost": "1572000",
				"executionCost": "6648",
				"totalCost": "1578648"
			},
			"external": {
				"campaigns(uint256)": "infinite",
				"checkRefunds(uint256)": "infinite",
				"createCampaign(string,string,uint256,uint256,string)": "infinite",
				"donateToCampaign(uint256,address)": "infinite",
				"getCampaigns()": "infinite",
				"numberOfCampaigns()": "2426",
				"refundAddresses(uint256,address)": "infinite"
			}
		},
		"methodIdentifiers": {
			"campaigns(uint256)": "141961bc",
			"checkRefunds(uint256)": "a7a25026",
			"createCampaign(string,string,uint256,uint256,string)": "d4e3dd6f",
			"donateToCampaign(uint256,address)": "28755e7f",
			"getCampaigns()": "a6b03633",
			"numberOfCampaigns()": "07ca140d",
			"refundAddresses(uint256,address)": "7eefc7e5"
		}
	},
	"abi": [
		{
			"anonymous": false,
			"inputs": [
				{
					"indexed": false,
					"internalType": "uint256",
					"name": "campaignId",
					"type": "uint256"
				},
				{
					"indexed": true,
					"internalType": "address",
					"name": "owner",
					"type": "address"
				},
				{
					"indexed": false,
					"internalType": "uint256",
					"name": "target",
					"type": "uint256"
				},
				{
					"indexed": false,
					"internalType": "uint256",
					"name": "deadline",
					"type": "uint256"
				}
			],
			"name": "CampaignCreated",
			"type": "event"
		},
		{
			"anonymous": false,
			"inputs": [
				{
					"indexed": false,
					"internalType": "uint256",
					"name": "campaignId",
					"type": "uint256"
				},
				{
					"indexed": true,
					"internalType": "address",
					"name": "donator",
					"type": "address"
				},
				{
					"indexed": false,
					"internalType": "uint256",
					"name": "amount",
					"type": "uint256"
				},
				{
					"indexed": false,
					"internalType": "uint256",
					"name": "timestamp",
					"type": "uint256"
				}
			],
			"name": "DonationReceived",
			"type": "event"
		},
		{
			"anonymous": false,
			"inputs": [
				{
					"indexed": false,
					"internalType": "uint256",
					"name": "campaignId",
					"type": "uint256"
				},
				{
					"indexed": true,
					"internalType": "address",
					"name": "donator",
					"type": "address"
				},
				{
					"indexed": false,
					"internalType": "uint256",
					"name": "amount",
					"type": "uint256"
				}
			],
			"name": "Refunded",
			"type": "event"
		},
		{
			"inputs": [
				{
					"internalType": "uint256",
					"name": "",
					"type": "uint256"
				}
			],
			"name": "campaigns",
			"outputs": [
				{
					"internalType": "address",
					"name": "owner",
					"type": "address"
				},
				{
					"internalType": "string",
					"name": "title",
					"type": "string"
				},
				{
					"internalType": "string",
					"name": "description",
					"type": "string"
				},
				{
					"internalType": "uint256",
					"name": "target",
					"type": "uint256"
				},
				{
					"internalType": "uint256",
					"name": "deadline",
					"type": "uint256"
				},
				{
					"internalType": "uint256",
					"name": "amountCollected",
					"type": "uint256"
				},
				{
					"internalType": "string",
					"name": "image",
					"type": "string"
				}
			],
			"stateMutability": "view",
			"type": "function"
		},
		{
			"inputs": [
				{
					"internalType": "uint256",
					"name": "_id",
					"type": "uint256"
				}
			],
			"name": "checkRefunds",
			"outputs": [],
			"stateMutability": "nonpayable",
			"type": "function"
		},
		{
			"inputs": [
				{
					"internalType": "string",
					"name": "_title",
					"type": "string"
				},
				{
					"internalType": "string",
					"name": "_description",
					"type": "string"
				},
				{
					"internalType": "uint256",
					"name": "_target",
					"type": "uint256"
				},
				{
					"internalType": "uint256",
					"name": "_deadline",
					"type": "uint256"
				},
				{
					"internalType": "string",
					"name": "_image",
					"type": "string"
				}
			],
			"name": "createCampaign",
			"outputs": [
				{
					"internalType": "uint256",
					"name": "",
					"type": "uint256"
				}
			],
			"stateMutability": "nonpayable",
			"type": "function"
		},
		{
			"inputs": [
				{
					"internalType": "uint256",
					"name": "_id",
					"type": "uint256"
				},
				{
					"internalType": "address",
					"name": "_refundAddress",
					"type": "address"
				}
			],
			"name": "donateToCampaign",
			"outputs": [],
			"stateMutability": "payable",
			"type": "function"
		},
		{
			"inputs": [],
			"name": "getCampaigns",
			"outputs": [
				{
					"components": [
						{
							"internalType": "address",
							"name": "owner",
							"type": "address"
						},
						{
							"internalType": "string",
							"name": "title",
							"type": "string"
						},
						{
							"internalType": "string",
							"name": "description",
							"type": "string"
						},
						{
							"internalType": "uint256",
							"name": "target",
							"type": "uint256"
						},
						{
							"internalType": "uint256",
							"name": "deadline",
							"type": "uint256"
						},
						{
							"internalType": "uint256",
							"name": "amountCollected",
							"type": "uint256"
						},
						{
							"internalType": "string",
							"name": "image",
							"type": "string"
						},
						{
							"internalType": "address[]",
							"name": "donators",
							"type": "address[]"
						},
						{
							"internalType": "uint256[]",
							"name": "donations",
							"type": "uint256[]"
						}
					],
					"internalType": "struct CrowdFunding.Campaign[]",
					"name": "",
					"type": "tuple[]"
				}
			],
			"stateMutability": "view",
			"type": "function"
		},
		{
			"inputs": [],
			"name": "numberOfCampaigns",
			"outputs": [
				{
					"internalType": "uint256",
					"name": "",
					"type": "uint256"
				}
			],
			"stateMutability": "view",
			"type": "function"
		},
		{
			"inputs": [
				{
					"internalType": "uint256",
					"name": "",
					"type": "uint256"
				},
				{
					"internalType": "address",
					"name": "",
					"type": "address"
				}
			],
			"name": "refundAddresses",
			"outputs": [
				{
					"internalType": "address",
					"name": "",
					"type": "address"
				}
			],
			"stateMutability": "view",
			"type": "function"
		}
	]
}